:040000000BEF00F012
:100008003582FACF01F0FBCF02F074ED02F0F8EF81
:1000180002F012EC03F00FC028F010C029F011C054
:100028002AF012C02BF0000E246E000E256E000E72
:10003800266E000E276E32D136EC03F01BEC03F06F
:10004800010E0F6E000E106E000EE7EC02F03EEC93
:1000580003F031EC03F0ADEC02F0000E106E010E6F
:100068000F6E24EC03F012002BEC03F00009D8B457
:1000780011D0000E0F6E000E106E000EE7EC02F0AD
:10008800000E1C6E000E1B6E000E1E6E000E1D6E06
:1000980005EC03F080B207D0000E106E020E0F6E52
:1000A80024EC03F0120080B01200000E106E030E54
:1000B8000F6E24EC03F012002BEC03F00009D8B407
:1000C80011D0030E1C6EE80E1B6E030E1E6EE80E9A
:1000D8001D6E05EC03F0010E0F6E010E106E010E81
:1000E800E7EC02F02450285C2550295826502A585D
:1000F80027502B58D8A033D0F40E2824246E010E94
:100108002920256E000E2A20266E000E2B20276E31
:1001180089B803D01F6A1F2A01D01F6A1F3A895065
:100128001F18EF0B1F18896E89B603D01F6A1F2A84
:1001380001D01F6A1F461F461F4689501F18F70B1C
:100148001F18896E89B403D01F6A1F2A01D01F6A3D
:100158001F461F4689501F18FB0B1F18896E80A267
:100168001200000E106E010E0F6E24EC03F0120048
:100178002BEC03F00009D8B411D0000E1C6E000E51
:100188001B6E000E1E6E000E1D6E05EC03F0000EB9
:100198000F6E000E106E000EE7EC02F02450285C83
:1001A8002550295826502A5827502B58D8A018D0FF
:1001B800F40E2824246E010E2920256E000E2A2014
:1001C800266E000E2B20276E89B803D01F6A1F2ABF
:1001D80001D01F6A1F3A89501F18EF0B1F18896E2C
:1001E80080A01200000E106E040E0F6E24EC03F0B7
:1001F80012002BEC03F00009D8B41DD0240E2824DB
:10020800246E130E2920256E000E2A20266E000E5D
:100218002B20276E000E0F6E000E106E010EE7ECFD
:1002280002F0000E1C6E000E1B6E000E1E6E000EFD
:100238001D6E05EC03F0480E24241F6EF40E2520D5
:10024800206EFF0E2620216EFF0E2720226E2850DA
:100258001F5C295020582A5021582B502258D8B0BA
:1002680003D0236A232A01D0236A23462346234640
:1002780089502318F70B2318896E2850245C2950BD
:1002880025582A5026582B502758D8A01200000E5F
:10029800106E050E0F6E24EC03F0120032C01FF032
:1002A80033C020F02050000AD8A412001F50000AC2
:1002B800D8B4C2D6010AD8B4D7D6030AD8B4FCD663
:1002C800010AD8B455D7070AD8B493D7010A12003F
:1002D80018BE03D0196A192A01D0196A193A1946A1
:1002E80019468B501918BF0B19188B6E18BE05D0FC
:1002F800185006E11704D8B003D0196A192A01D09A
:10030800196A193219328B5019187F0B19188B6E0C
:1003180018AE04D0176C181ED8B0182A18BE06D00C
:10032800E90E175C030E1858D8B004D017501810EF
:10033800D8A404D0030E186EE80E176E17C019F073
:1003480018C01AF00A0ED89019361A36E82EFBD7BC
:1003580019C00FF01AC010F0030E126EE80E116EDD
:1003680032EC02F00FC017F010C018F017C019F0E7
:10037800030E1916193ABA501918CF0B1918BA6E74
:1003880017C019F018C01AF01A341A3219321A3470
:100398001A3219321950BB6E120018BE03D0196AEE
:1003A800192A01D0196A19468A501918FD0B19180B
:1003B8008A6E18BE05D0185006E11704D8B003D0CD
:1003C800196A192A01D0196A8A501918FE0B1918C6
:1003D8008A6E18AE04D0176C181ED8B0182A18BE2A
:1003E80006D0E90E175C030E1858D8B004D0175081
:1003F8001810D8A404D0030E186EE80E176E17C094
:1004080019F018C01AF00A0ED89019361A36E82EC4
:10041800FBD719C00FF01AC010F0030E126EE80EC9
:10042800116E32EC02F00FC017F010C018F017C0B0
:1004380019F0030E1916193ABD501918CF0B1918CF
:10044800BD6E17C019F018C01AF01A341A321932D2
:100458001A341A3219321950BE6E1200000E146E78
:1004680012AE06D0116C121ED8B0122A010E146EEC
:1004780010AE06D00F6C101ED8B0102A010E141A38
:10048800000E166E000E156E11501210D8B41CD046
:10049800010E136E04D0D89011361236132A12AEFC
:1004A800FAD7D8901536163611500F5C12501058DE
:1004B800D8A005D011500F5E1250105A1580D89050
:1004C80012321132132EEDD71450D8B404D0156C53
:1004D800161ED8B0162A15C00FF016C010F012005C
:1004E8000600E9CF03F0EACF04F0E1CF05F0E2CF50
:1004F80006F0D9CF07F0DACF08F0F3CF09F0F4CF40
:100508000AF0F6CF0BF0F7CF0CF0F8CF0DF0F5CFDF
:100518000EF0CCEC02F00EC0F5FF0DC0F8FF0CC0D9
:10052800F7FF0BC0F6FF0AC0F4FF09C0F3FF08C0CD
:10053800DAFF07C0D9FF06C0E2FF05C0E1FF04C02B
:10054800EAFF03C0E9FF02C0FBFF01C0FAFF3592D2
:10055800110093929390949C949E8A928A908B9C7B
:100568008B9E94929494950ECB6E000EBE6E000EE8
:10057800BB6ECF0EBD16CF0EBA16050ECA6EBD8065
:10058800BD82BD84BD86BA80BA82BA84BA8612009A
:10059800F2B402D0010E1200A80E3026020E31224B
:1005A800E90E305C030E3158D8A00AD0E80E305E50
:1005B800030E315A010E2C26000E2D222E222F2238
:1005C800F294000E1200116E11B002D0899801D079
:1005D80089880FB002D0899601D0898610B002D0E0
:1005E800899401D08984120000EE2CF0090EEE6A7D
:1005F800E806FDE135903592000EF86E00013BEFFC
:1006080003F01BC017F01CC018F06CEC01F01DC003
:1006180017F01EC018F0D1EC01F012002CC00FF03A
:100628002DC010F02EC011F02FC012F012009298B9
:1006380089989296899692948994928292801200CF
:100648000FC032F010C033F0010E346E120034C007
:100658000FF0000E346E0F501200F294F28AC40E9E
:10066800D56E1200C180C182C184C18612000DEC12
:0A06780000F0FDD7F28CF28E1200A4
:020000040020DA
:08000000FFFFFFFFFFFFFFFF00
:020000040030CA
:0E000000240E011EFF0180FF0FC00FE00F4015
:00000001FF
