:040000000BEF00F012
:100008003682FACF01F0FBCF02F0F5ED03F0D0EF26
:1000180004F002EC05F00FC027F010C028F011C062
:1000280029F012C02AF0000E236E000E246E000E76
:10003800256E000E266E99D26AEC05F00BEC05F0E1
:10004800010E106E000E116E000EF7EC04F01DECA0
:1000580005F0000EA0EC04F072EC05F065EC05F07C
:1000680066EC04F0000E106E010E0F6E25EC05F024
:10007800120041EC05F00009D8B411D0000E106E42
:10008800000E116E000EF7EC04F0000E1C6E000E50
:100098001B6E000E1E6E000E1D6EDDEC04F05FEC94
:1000A80005F00009D8B407D0000E106E020E0F6ECE
:1000B80025EC05F0120059EC05F00009D8B412003F
:1000C80059EC05F00009D8A4FBD7000E106E030EFA
:1000D8000F6E25EC05F0120041EC05F00009D8B4CC
:1000E80011D0030E1C6EE80E1B6E030E1E6EE80E7A
:1000F8001D6EDDEC04F0010E106E010E116E010E86
:10010800F7EC04F02350275C245028582550295830
:1001180026502A58D8A02AD0F40E2724236E010E80
:100128002820246E000E2920256E000E2A20266E17
:100138004DEC05F00009D8A402D0010E01D0000E44
:1001480033EC05F047EC05F00009D8A402D0010E05
:1001580001D0000E2CEC05F053EC05F00009D8A4F2
:1001680002D0010E01D0000E3AEC05F05FEC05F06C
:100178000009D8A41200000E106E010E0F6E25ECB7
:1001880005F0120041EC05F00009D8B411D0000EBA
:100198001C6E000E1B6E000E1E6E000E1D6EDDEC3A
:1001A80004F0000E106E000E116E010EF7EC04F054
:1001B8002350275C245028582550295826502A585F
:1001C800D8A016D0F40E2724236E010E2820246E02
:1001D800000E2920256E000E2A20266E4DEC05F013
:1001E8000009D8A402D0010E01D0000E33EC05F0AE
:1001F8005FEC05F00009D8B416D0010E106E010EA0
:10020800116E010EF7EC04F05FEC05F00009D8A4BC
:10021800FBD7000E346E090E336E000E106E040EFE
:100228000F6E25EC05F059EC05F00009D8B4120062
:10023800010E106E010E116E010EF7EC04F059EC70
:1002480005F00009D8A4FBD7000E346E080E336EF3
:10025800000E106E040E0F6E25EC05F0120041EC36
:1002680005F00009D8B41DD0560E2724236E130EAE
:100278002820246E000E2920256E000E2A20266EC6
:10028800000E106E000E116E010EF7EC04F0000E59
:100298001C6E000E1B6E000E1E6E000E1D6EDDEC39
:1002A80004F0550E23241F6EF60E2420206EFF0E38
:1002B8002520216EFF0E2620226E27501F5C285015
:1002C8002058295021582A502258D8B002D0010E5F
:1002D80001D0000E2CEC05F02750235C2850245840
:1002E800295025582A502658D8A01200000E106E02
:1002F800050E0F6E25EC05F01200010EA0EC04F0BF
:10030800C0EC04F00009D8B407D0000E106E010E3E
:100318000F6E25EC05F0120014EC05F00009D8B4B6
:1003280007D0000E106E070E0F6E25EC05F01200B8
:10033800030E2EEC04F00009D8B429D0020E2EECDE
:1003480004F00009D8B40BD0000E106E0D0E0F6E1D
:1003580025EC05F0000E346E090E336E1200040E03
:100368002EEC04F00009D8B40BD0000E106E0C0E61
:100378000F6E25EC05F0000E346E080E336E120079
:10038800000E106E060E0F6E25EC05F01200020E20
:100398002EEC04F00009D8B40BD0000E106E0B0E32
:1003A8000F6E25EC05F0000E346E090E336E120048
:1003B800040E2EEC04F00009D8B40BD0000E106E19
:1003C8000A0E0F6E25EC05F0000E346E080E336E23
:1003D8001200050E2EEC04F00009D8B40BD0000E64
:1003E800106E080E0F6E25EC05F0000E346E080E28
:1003F800336E1200010E2EEC04F00009D8B40BD0B5
:10040800000E106E090E0F6E25EC05F0000E346E0E
:10041800090E336E120033C00FF034C010F025EC13
:1004280005F0000EA0EC04F01200030E1C6EE80E9E
:100438001B6EEAEC04F0000E106E050E0F6E25EC34
:1004480005F0120041EC05F00009D8B412D0030EF3
:100458001C6EE80E1B6EEAEC04F0E80E2724236EEF
:10046800030E2820246E000E2920256E000E2A2057
:10047800266E2350275C245028582550295826508A
:100488002A58D8B005D0B0EC04F00009D8B412004E
:10049800000E106E050E0F6E25EC05F01200030E0F
:1004A8001C6EE80E1B6EFC0E1E6E180E1D6EDDEC2B
:1004B80004F0000E106E050E0F6E25EC05F012000C
:1004C800FC0E1C6E180E1B6E030E1E6EE80E1D6EC3
:1004D800DDEC04F0000E106E050E0F6E25EC05F035
:1004E8001200030E1C6EE80E1B6E000E1E6E000E30
:1004F8001D6EDDEC04F0000E106E050E0F6E25EC7F
:1005080005F01200000E1C6E000E1B6E030E1E6E10
:10051800E80E1D6EDDEC04F0000E106E050E0F6E79
:1005280025EC05F01200030E1C6EE80E1B6E010E82
:100538001E6EF40E1D6EDDEC04F0000E106E050E3E
:100548000F6E25EC05F01200010E1C6EF40E1B6EEA
:10055800030E1E6EE80E1D6EDDEC04F0000E106E2C
:10056800050E0F6E25EC05F0120031C01FF032C0E9
:1005780020F02050000AD8A412001F50000AD8B456
:100588005BD5010AD8B475D5030AD8B4A5D5010A34
:10059800D8B4F8D5070AD8B462D6010AD8B4ADD60B
:1005A800030AD8B442D7010AD8B44CD70F0AD8B432
:1005B80076D7010AD8B484D7030AD8B492D7010AE7
:1005C800D8B4A0D7070AD8B4AED7010AD8A4120065
:1005D800BBD718BE03D0196A192A01D0196A193A6B
:1005E800194619468B501918BF0B19188B6E18BE6F
:1005F80005D0185006E11704D8B003D0196A192A93
:1006080001D0196A193219328B5019187F0B191831
:100618008B6E18AE04D0176C181ED8B0182A18BEE6
:1006280006D0E90E175C030E1858D8B004D017503E
:100638001810D8A404D0030E186EE80E176E17C051
:1006480019F018C01AF00A0ED89019361A36E82E82
:10065800FBD719C00FF01AC010F0030E126EE80E87
:10066800116EB3EC03F00FC017F010C018F017C0EC
:1006780019F0030E1916193ABA501918CF0B191890
:10068800BA6E17C019F018C01AF01A341A32193293
:100698001A341A3219321950BB6E120018BE03D020
:1006A800196A192A01D0196A19468A501918FD0BB6
:1006B80019188A6E18BE05D0185006E11704D8B06C
:1006C80003D0196A192A01D0196A8A501918FE0B21
:1006D80019188A6E18AE04D0176C181ED8B0182ACC
:1006E80018BE06D0E90E175C030E1858D8B004D00F
:1006F80017501810D8A404D0030E186EE80E176E01
:1007080017C019F018C01AF00A0ED89019361A3600
:10071800E82EFBD719C00FF01AC010F0030E126EA6
:10072800E80E116EB3EC03F00FC017F010C018F00C
:1007380017C019F0030E1916193ABD501918CF0B26
:100748001918BD6E17C019F018C01AF01A341A32E9
:1007580019321A341A3219321950BE6E1200000EAC
:10076800146E12AE06D0116C121ED8B0122A010EE9
:10077800146E10AE06D00F6C101ED8B0102A010EE1
:10078800141A000E166E000E156E11501210D8B401
:100798001CD0010E136E04D0D89011361236132ACD
:1007A80012AEFAD7D8901536163611500F5C125083
:1007B8001058D8A005D011500F5E1250105A15804D
:1007C800D89012321132132EEDD71450D8B404D069
:1007D800156C161ED8B0162A15C00FF016C010F0EA
:1007E80012000600E9CF03F0EACF04F0E1CF05F0EC
:1007F800E2CF06F0D9CF07F0DACF08F0F3CF09F04F
:10080800F4CF0AF0F6CF0BF0F7CF0CF0F8CF0DF0DD
:10081800F5CF0EF085EC04F00EC0F5FF0DC0F8FF23
:100828000CC0F7FF0BC0F6FF0AC0F4FF09C0F3FFC6
:1008380008C0DAFF07C0D9FF06C0E2FF05C0E1FF24
:1008480004C0EAFF03C0E9FF02C0FBFF01C0FAFFD2
:10085800369211000F6E8AB402D0000E12000F04F7
:10086800D8A406D082A002D0010E1200000E1200F9
:10087800020E0F18D8A406D080AA02D0010E1200CA
:10088800000E1200030E0F18D8A406D081AA02D0B9
:10089800010E1200000E1200040E0F18D8A406D084
:1008A80082AA02D0010E1200000E1200050E0F18C7
:1008B800D8A406D082A802D0010E1200000E1200A1
:1008C800000E120093929390949C949E8A928A9020
:1008D8008B9C8B9E94929494950ECB6E000EBE6E5C
:1008E800000EBB6ECF0EBD16CF0EBA16050ECA6E21
:1008F800BD80BD82BD84BD86BA80BA82BA84BA86FC
:100908001200F2B402D0010E1200A80E2F26020E19
:100918003022E90E2F5C030E3058D8A00AD0E80E1A
:100928002F5E030E305A010E2B26000E2C222D228C
:100938002E22F294000E1200106E1050D8B403D07C
:100948000F6A0F2A01D00F6A0F460F468A500F18F8
:10095800FB0B0F188A6E1200000E0F6E8AA40AD0C5
:1009680082A080BA05D081AA82BA02D082A802D019
:10097800010E0F6E0F501200010E0F6E5FEC05F0A6
:100988000009D8A407D059EC05F00009D8A402D072
:10099800000E0F6E0F50120000EE2BF00B0EEE6AD9
:1009A800E806FDE136903692000EF86E00016FEF12
:1009B80005F01BC017F01CC018F0EDEC02F01DC0CC
:1009C80017F01EC018F052EC03F012001BC017F00D
:1009D8001CC018F0EDEC02F01BC017F01CC018F09A
:1009E80052EC03F01200126E125033EC05F0105066
:1009F8002CEC05F011503AEC05F012002BC00FF06A
:100A08002CC010F02DC011F02EC012F012009298D8
:100A180089989296899692948994928292801200EB
:100A2800010E0F6E81A881B602D0000E0F6E0F5016
:100A380012009480928A938A9394938893868A94D6
:100A480012000FC031F010C032F0010E356E1200E6
:100A58000F6E0FB002D0899601D0898612000F6EF2
:100A68000FB002D0899801D0898812000F6E0FB09C
:100A780002D0899401D08984120035C00FF0000E8D
:100A8800356E0F50120089A602D0010E1200000E1A
:100A9800120089A802D0010E1200000E120089A4CB
:100AA80002D0010E1200000E120080B002D0010E1A
:100AB8001200000E120080B202D0010E1200000EC9
:100AC8001200F294F28AC40ED56E1200C180C1825F
:100AD800C184C18612000DEC00F0FDD7F28CF28EB5
:020AE8001200FA
:020000040020DA
:08000000FFFFFFFFFFFFFFFF00
:020000040030CA
:0E000000240E011EFF0180FF0FC00FE00F4015
:00000001FF
